{
  "contractName": "TokenFaucet",
  "abi": [
    {
      "inputs": [
        {
          "name": "_tokenAddress",
          "type": "address"
        }
      ],
      "payable": false,
      "stateMutability": "nonpayable",
      "type": "constructor"
    },
    {
      "anonymous": false,
      "inputs": [
        {
          "indexed": false,
          "name": "caller",
          "type": "address"
        },
        {
          "indexed": false,
          "name": "amount",
          "type": "uint256"
        }
      ],
      "name": "transfer",
      "type": "event"
    },
    {
      "constant": false,
      "inputs": [],
      "name": "CollectTokens",
      "outputs": [],
      "payable": false,
      "stateMutability": "nonpayable",
      "type": "function"
    },
    {
      "constant": true,
      "inputs": [],
      "name": "getCallerTokenBal",
      "outputs": [
        {
          "name": "callerTokenBal",
          "type": "uint256"
        }
      ],
      "payable": false,
      "stateMutability": "view",
      "type": "function"
    }
  ],
  "bytecode": "0x608060405234801561001057600080fd5b5060405160208061065683398101806040528101908080519060200190929190505050806000806101000a81548173ffffffffffffffffffffffffffffffffffffffff021916908373ffffffffffffffffffffffffffffffffffffffff160217905550506105d3806100836000396000f30060806040526004361061004c576000357c0100000000000000000000000000000000000000000000000000000000900463ffffffff168063a63f291214610051578063e5fa77911461007c575b600080fd5b34801561005d57600080fd5b50610066610093565b6040518082815260200191505060405180910390f35b34801561008857600080fd5b50610091610191565b005b60008060009054906101000a900473ffffffffffffffffffffffffffffffffffffffff1673ffffffffffffffffffffffffffffffffffffffff166370a08231336040518263ffffffff167c0100000000000000000000000000000000000000000000000000000000028152600401808273ffffffffffffffffffffffffffffffffffffffff1673ffffffffffffffffffffffffffffffffffffffff168152602001915050602060405180830381600087803b15801561015157600080fd5b505af1158015610165573d6000803e3d6000fd5b505050506040513d602081101561017b57600080fd5b8101908080519060200190929190505050905090565b600080683635c9adc5dea000006000809054906101000a900473ffffffffffffffffffffffffffffffffffffffff1673ffffffffffffffffffffffffffffffffffffffff166370a08231336040518263ffffffff167c0100000000000000000000000000000000000000000000000000000000028152600401808273ffffffffffffffffffffffffffffffffffffffff1673ffffffffffffffffffffffffffffffffffffffff168152602001915050602060405180830381600087803b15801561025a57600080fd5b505af115801561026e573d6000803e3d6000fd5b505050506040513d602081101561028457600080fd5b810190808051906020019092919050505011151515610331576040517f08c379a000000000000000000000000000000000000000000000000000000000815260040180806020018281038252602c8152602001807f20746f6b656e2062616c616e6365206f6620636c61696d616e74206973206d6f81526020017f7265207468616e2031303030000000000000000000000000000000000000000081525060400191505060405180910390fd5b6000809054906101000a900473ffffffffffffffffffffffffffffffffffffffff1673ffffffffffffffffffffffffffffffffffffffff166370a08231336040518263ffffffff167c0100000000000000000000000000000000000000000000000000000000028152600401808273ffffffffffffffffffffffffffffffffffffffff1673ffffffffffffffffffffffffffffffffffffffff168152602001915050602060405180830381600087803b1580156103ed57600080fd5b505af1158015610401573d6000803e3d6000fd5b505050506040513d602081101561041757600080fd5b8101908080519060200190929190505050915081683635c9adc5dea000000390506000809054906101000a900473ffffffffffffffffffffffffffffffffffffffff1673ffffffffffffffffffffffffffffffffffffffff1663a9059cbb33836040518363ffffffff167c0100000000000000000000000000000000000000000000000000000000028152600401808373ffffffffffffffffffffffffffffffffffffffff1673ffffffffffffffffffffffffffffffffffffffff16815260200182815260200192505050602060405180830381600087803b1580156104fc57600080fd5b505af1158015610510573d6000803e3d6000fd5b505050506040513d602081101561052657600080fd5b8101908080519060200190929190505050507fa9059cbb2ab09eb219583f4a59a5d0623ade346d962bcd4e46b11da047c9049b3382604051808373ffffffffffffffffffffffffffffffffffffffff1673ffffffffffffffffffffffffffffffffffffffff1681526020018281526020019250505060405180910390a150505600a165627a7a723058206451101251ffcdf3095d1c75bf8da260b7bb4aba12c84acba58c1cf5c409ef640029",
  "source": "pragma solidity 0.4.26;\r\nimport './IERC20.sol';\r\n\r\ncontract TokenFaucet {\r\n    IERC20 tokenAddress;\r\n    event transfer (address caller, uint amount);\r\n \r\n\r\n    // code will be deployed when the token address of token to be distributed by faucet is provided.\r\n    constructor(IERC20 _tokenAddress) public{\r\n        tokenAddress = _tokenAddress;\r\n    }\r\n\r\n    function CollectTokens() public {\r\n\r\n        require(tokenAddress.balanceOf(msg.sender) <= 1000 * 10**18, ' token balance of claimant is more than 1000');\r\n\r\n        //get token bal of caller \r\n        uint callerTokenBal =  tokenAddress.balanceOf(msg.sender);\r\n\r\n        //calculate amount to be sent to caller\r\n        uint amountToBeClaimed = 1000* 10**18 - callerTokenBal;\r\n\r\n        //transfer 50 tokens to the function caller\r\n        tokenAddress.transfer( msg.sender, amountToBeClaimed);\r\n        emit transfer(msg.sender, amountToBeClaimed);\r\n\r\n    }\r\n    \r\n    function getCallerTokenBal() public view returns(uint callerTokenBal){\r\n         callerTokenBal =  tokenAddress.balanceOf(msg.sender);\r\n    }\r\n}",
  "sourcePath": "C:/Users/HP/Desktop/react-tutorial/faucet-dapp/contracts/faucet.sol",
  "compiler": {
    "name": "solc",
    "version": "0.4.26+commit.4563c3fc.Emscripten.clang"
  },
  "schemaVersion": "3.3.1",
  "updatedAt": "2020-12-18T18:26:13.846Z",
  "networkType": "ethereum",
  "devdoc": {
    "methods": {}
  },
  "userdoc": {
    "methods": {}
  }
}